{
  "contractName": "ReputationFromToken",
  "abi": [
    {
      "constant": true,
      "inputs": [],
      "name": "DELEGATION_HASH_EIP712",
      "outputs": [
        {
          "internalType": "bytes32",
          "name": "",
          "type": "bytes32"
        }
      ],
      "payable": false,
      "stateMutability": "view",
      "type": "function"
    },
    {
      "constant": true,
      "inputs": [
        {
          "internalType": "address",
          "name": "",
          "type": "address"
        }
      ],
      "name": "redeems",
      "outputs": [
        {
          "internalType": "bool",
          "name": "",
          "type": "bool"
        }
      ],
      "payable": false,
      "stateMutability": "view",
      "type": "function"
    },
    {
      "constant": true,
      "inputs": [],
      "name": "tokenContract",
      "outputs": [
        {
          "internalType": "contract IERC20",
          "name": "",
          "type": "address"
        }
      ],
      "payable": false,
      "stateMutability": "view",
      "type": "function"
    },
    {
      "constant": true,
      "inputs": [],
      "name": "avatar",
      "outputs": [
        {
          "internalType": "contract Avatar",
          "name": "",
          "type": "address"
        }
      ],
      "payable": false,
      "stateMutability": "view",
      "type": "function"
    },
    {
      "constant": true,
      "inputs": [],
      "name": "getAgreementHash",
      "outputs": [
        {
          "internalType": "bytes32",
          "name": "",
          "type": "bytes32"
        }
      ],
      "payable": false,
      "stateMutability": "view",
      "type": "function"
    },
    {
      "constant": true,
      "inputs": [],
      "name": "curve",
      "outputs": [
        {
          "internalType": "contract CurveInterface",
          "name": "",
          "type": "address"
        }
      ],
      "payable": false,
      "stateMutability": "view",
      "type": "function"
    },
    {
      "anonymous": false,
      "inputs": [
        {
          "indexed": true,
          "internalType": "address",
          "name": "_beneficiary",
          "type": "address"
        },
        {
          "indexed": true,
          "internalType": "address",
          "name": "_sender",
          "type": "address"
        },
        {
          "indexed": false,
          "internalType": "uint256",
          "name": "_amount",
          "type": "uint256"
        }
      ],
      "name": "Redeem",
      "type": "event"
    },
    {
      "constant": false,
      "inputs": [
        {
          "internalType": "contract Avatar",
          "name": "_avatar",
          "type": "address"
        },
        {
          "internalType": "contract IERC20",
          "name": "_tokenContract",
          "type": "address"
        },
        {
          "internalType": "contract CurveInterface",
          "name": "_curve",
          "type": "address"
        },
        {
          "internalType": "bytes32",
          "name": "_agreementHash",
          "type": "bytes32"
        }
      ],
      "name": "initialize",
      "outputs": [],
      "payable": false,
      "stateMutability": "nonpayable",
      "type": "function"
    },
    {
      "constant": false,
      "inputs": [
        {
          "internalType": "address",
          "name": "_beneficiary",
          "type": "address"
        },
        {
          "internalType": "bytes32",
          "name": "_agreementHash",
          "type": "bytes32"
        }
      ],
      "name": "redeem",
      "outputs": [
        {
          "internalType": "uint256",
          "name": "",
          "type": "uint256"
        }
      ],
      "payable": false,
      "stateMutability": "nonpayable",
      "type": "function"
    },
    {
      "constant": false,
      "inputs": [
        {
          "internalType": "address",
          "name": "_beneficiary",
          "type": "address"
        },
        {
          "internalType": "bytes32",
          "name": "_agreementHash",
          "type": "bytes32"
        },
        {
          "internalType": "uint256",
          "name": "_signatureType",
          "type": "uint256"
        },
        {
          "internalType": "bytes",
          "name": "_signature",
          "type": "bytes"
        }
      ],
      "name": "redeemWithSignature",
      "outputs": [
        {
          "internalType": "uint256",
          "name": "",
          "type": "uint256"
        }
      ],
      "payable": false,
      "stateMutability": "nonpayable",
      "type": "function"
    }
  ],
  "bytecode": "0x608060405234801561001057600080fd5b50610bfd806100206000396000f3fe608060405234801561001057600080fd5b50600436106100935760003560e01c80635aef7de6116100665780635aef7de61461019c57806363acc14d146101a4578063696da921146101e25780637165485d146101ea578063c85c8925146101f257610093565b806330ca0a5314610098578063511ffbff146100b257806355a373d6146100ec5780635861cab114610110575b600080fd5b6100a061021e565b60408051918252519081900360200190f35b6100d8600480360360208110156100c857600080fd5b50356001600160a01b0316610286565b604080519115158252519081900360200190f35b6100f461029b565b604080516001600160a01b039092168252519081900360200190f35b6100a06004803603608081101561012657600080fd5b6001600160a01b03823516916020810135916040820135919081019060808101606082013564010000000081111561015d57600080fd5b82018360208201111561016f57600080fd5b8035906020019184600183028401116401000000008311171561019157600080fd5b5090925090506102aa565b6100f46104b4565b6101e0600480360360808110156101ba57600080fd5b506001600160a01b038135811691602081013582169160408201351690606001356104c3565b005b6100a06105c0565b6100f46105c6565b6100a06004803603604081101561020857600080fd5b506001600160a01b0381351690602001356105d5565b604051602001806022610b7f823972616464726573732042656e656669636961727960681b6022820152740c4f2e8cae666644082cee4cacadacadce890c2e6d605b1b603582015260408051602a818403018152604a90920190528051602090910120905081565b60036020526000908152604090205460ff1681565b6001546001600160a01b031681565b600080846002141561038a57604051602001806022610b7f823972616464726573732042656e656669636961727960681b6022820152740c4f2e8cae666644082cee4cacadacadce890c2e6d605b1b603582015260408051808303602a018152604a83018252805160209182012030606090811b606a8601528c901b6bffffffffffffffffffffffff1916607e85015260928085018c90528351808603909101815260b28501845280519083012060d285019190915260f28085019190915282518085039091018152610112909301909152815191012091506103f69050565b6103f330888860405160200180846001600160a01b03166001600160a01b031660601b8152601401836001600160a01b03166001600160a01b031660601b81526014018281526020019350505050604051602081830303815290604052805190602001206105eb565b90505b600061044085858080601f016020809104026020016040519081016040528093929190818152602001838380828437600092019190915250869392505063ffffffff61063c169050565b90506001600160a01b03811661049d576040805162461bcd60e51b815260206004820152601c60248201527f72656465656d657220616464726573732063616e6e6f74206265203000000000604482015290519081900360640190fd5b6104a888828961072a565b98975050505050505050565b6004546001600160a01b031681565b6004546001600160a01b031615610521576040805162461bcd60e51b815260206004820152601b60248201527f63616e2062652063616c6c6564206f6e6c79206f6e652074696d650000000000604482015290519081900360640190fd5b6001600160a01b038416610574576040805162461bcd60e51b81526020600482015260156024820152746176617461722063616e6e6f74206265207a65726f60581b604482015290519081900360640190fd5b600180546001600160a01b038086166001600160a01b0319928316179092556004805487841690831617905560028054928516929091169190911790556105ba81610af0565b50505050565b60005490565b6002546001600160a01b031681565b60006105e283338461072a565b90505b92915050565b604080517f19457468657265756d205369676e6564204d6573736167653a0a333200000000602080830191909152603c8083019490945282518083039094018452605c909101909152815191012090565b6000815160411461064f575060006105e5565b60208201516040830151606084015160001a7f7fffffffffffffffffffffffffffffff5d576e7357a4501ddfe92f46681b20a082111561069557600093505050506105e5565b8060ff16601b141580156106ad57508060ff16601c14155b156106be57600093505050506105e5565b6040805160008152602080820180845289905260ff8416828401526060820186905260808201859052915160019260a0808401939192601f1981019281900390910190855afa158015610715573d6000803e3d6000fd5b5050604051601f190151979650505050505050565b600081600054811461076d5760405162461bcd60e51b8152600401808060200182810382526028815260200180610ba16028913960400191505060405180910390fd5b6004546001600160a01b03166107ca576040805162461bcd60e51b815260206004820152601760248201527f73686f756c6420696e697469616c697a65206669727374000000000000000000604482015290519081900360640190fd5b6001600160a01b03841660009081526003602052604090205460ff16156108225760405162461bcd60e51b8152600401808060200182810382526034815260200180610b4b6034913960400191505060405180910390fd5b6001600160a01b038085166000818152600360209081526040808320805460ff191660019081179091555481516370a0823160e01b815260048101959095529051929416926370a082319260248083019392829003018186803b15801561088857600080fd5b505afa15801561089c573d6000803e3d6000fd5b505050506040513d60208110156108b257600080fd5b50516002549091506001600160a01b0316156109435760025460408051631c64813d60e11b81526004810184905290516001600160a01b03909216916338c9027a91602480820192602092909190829003018186803b15801561091457600080fd5b505afa158015610928573d6000803e3d6000fd5b505050506040513d602081101561093e57600080fd5b505190505b6001600160a01b038616610955578495505b6004805460408051638da5cb5b60e01b815290516001600160a01b0390921692638da5cb5b928282019260209290829003018186803b15801561099757600080fd5b505afa1580156109ab573d6000803e3d6000fd5b505050506040513d60208110156109c157600080fd5b5051600480546040805163757cca5960e11b81529283018590526001600160a01b038a8116602485015291821660448401525192169163eaf994b2916064808201926020929091908290030181600087803b158015610a1f57600080fd5b505af1158015610a33573d6000803e3d6000fd5b505050506040513d6020811015610a4957600080fd5b5051610a9c576040805162461bcd60e51b815260206004820152601e60248201527f6d696e742072657075746174696f6e2073686f756c6420737563636565640000604482015290519081900360640190fd5b846001600160a01b0316866001600160a01b03167fd12200efa34901b99367694174c3b0d32c99585fdf37c7c26892136ddd0836d9836040518082815260200191505060405180910390a395945050505050565b60005415610b45576040805162461bcd60e51b815260206004820152601b60248201527f43616e206e6f74207365742061677265656d656e742074776963650000000000604482015290519081900360640190fd5b60005556fe72656465656d696e672074776963652066726f6d207468652073616d65206163636f756e74206973206e6f7420616c6c6f776564616464726573732052657075746174696f6e46726f6d546f6b656e4164647265737353656e646572206d7573742073656e64207468652072696768742061677265656d656e7448617368a265627a7a723158202d8d4258db1e9d9e4512cae4225398bf30a0e6d8c71aa2a07dd4689f166dfa9164736f6c634300050b0032",
  "source": "pragma solidity ^0.5.11;\n\nimport \"../controller/ControllerInterface.sol\";\nimport \"openzeppelin-solidity/contracts/token/ERC20/IERC20.sol\";\nimport \"./CurveInterface.sol\";\nimport \"openzeppelin-solidity/contracts/cryptography/ECDSA.sol\";\nimport \"openzeppelin-solidity/contracts/math/SafeMath.sol\";\nimport \"./Agreement.sol\";\n\n/**\n * @title A scheme for reputation allocation according to token balances\n *        This contract is assuming that the token contract is paused, and one cannot transfer its tokens.\n */\n\ncontract ReputationFromToken is Agreement {\n    using ECDSA for bytes32;\n    using SafeMath for uint256;\n\n    IERC20 public tokenContract;\n    CurveInterface public curve;\n    //      beneficiary -> bool\n    mapping(address     => bool) public redeems;\n    Avatar public avatar;\n\n    // Digest describing the data the user signs according EIP 712.\n    // Needs to match what is passed to Metamask.\n    bytes32 public constant DELEGATION_HASH_EIP712 =\n    keccak256(abi.encodePacked(\n    \"address ReputationFromTokenAddress\",\n    \"address Beneficiary\",\n    \"bytes32 AgreementHash\"\n    ));\n\n    event Redeem(address indexed _beneficiary, address indexed _sender, uint256 _amount);\n\n    /**\n     * @dev initialize\n     * @param _avatar the avatar to mint reputation from\n     * @param _tokenContract the token contract\n     * @param _agreementHash is a hash of agreement required to be added to the TX by participants\n     */\n    function initialize(Avatar _avatar, IERC20 _tokenContract, CurveInterface _curve, bytes32 _agreementHash) external\n    {\n        require(avatar == Avatar(0), \"can be called only one time\");\n        require(_avatar != Avatar(0), \"avatar cannot be zero\");\n        tokenContract = _tokenContract;\n        avatar = _avatar;\n        curve = _curve;\n        super.setAgreementHash(_agreementHash);\n    }\n\n    /**\n     * @dev redeem function\n     * @param _beneficiary the beneficiary address to redeem for\n     * @param _agreementHash the agreementHash hash\n     * @return uint256 minted reputation\n     */\n    function redeem(address _beneficiary, bytes32 _agreementHash) external returns(uint256) {\n        return _redeem(_beneficiary, msg.sender, _agreementHash);\n    }\n\n    /**\n     * @dev redeemWithSignature function\n     * @param _beneficiary the beneficiary address to redeem for\n     * @param _signatureType signature type\n              1 - for web3.eth.sign\n              2 - for eth_signTypedData according to EIP #712.\n     * @param _signature  - signed data by the staker\n     * @return uint256 minted reputation\n     */\n    function redeemWithSignature(\n        address _beneficiary,\n        bytes32 _agreementHash,\n        uint256 _signatureType,\n        bytes calldata _signature\n        )\n        external\n        returns(uint256)\n        {\n        // Recreate the digest the user signed\n        bytes32 delegationDigest;\n        if (_signatureType == 2) {\n            delegationDigest = keccak256(\n                abi.encodePacked(\n                    DELEGATION_HASH_EIP712, keccak256(\n                        abi.encodePacked(\n                        address(this),\n                        _beneficiary,\n                        _agreementHash)\n                    )\n                )\n            );\n        } else {\n            delegationDigest = keccak256(\n                        abi.encodePacked(\n                        address(this),\n                        _beneficiary,\n                        _agreementHash)\n                    ).toEthSignedMessageHash();\n        }\n        address redeemer = delegationDigest.recover(_signature);\n        require(redeemer != address(0), \"redeemer address cannot be 0\");\n        return _redeem(_beneficiary, redeemer, _agreementHash);\n    }\n\n    /**\n     * @dev redeem function\n     * @param _beneficiary the beneficiary address to redeem for\n     * @param _redeemer the redeemer address\n     * @return uint256 minted reputation\n     */\n    function _redeem(address _beneficiary, address _redeemer, bytes32 _agreementHash)\n    private\n    onlyAgree(_agreementHash)\n    returns(uint256) {\n        require(avatar != Avatar(0), \"should initialize first\");\n        require(redeems[_redeemer] == false, \"redeeming twice from the same account is not allowed\");\n        redeems[_redeemer] = true;\n        uint256 tokenAmount = tokenContract.balanceOf(_redeemer);\n        if (curve != CurveInterface(0)) {\n            tokenAmount = curve.calc(tokenAmount);\n        }\n        if (_beneficiary == address(0)) {\n            _beneficiary = _redeemer;\n        }\n        require(\n        ControllerInterface(\n        avatar.owner())\n        .mintReputation(tokenAmount, _beneficiary, address(avatar)), \"mint reputation should succeed\");\n        emit Redeem(_beneficiary, _redeemer, tokenAmount);\n        return tokenAmount;\n    }\n}\n",
  "sourcePath": "/Users/thomas/Code/client/EthFinex/arc/contracts/schemes/ReputationFromToken.sol",
  "compiler": {
    "name": "solc",
    "version": "0.5.11+commit.c082d0b4.Emscripten.clang"
  },
  "schemaVersion": "3.0.11",
  "updatedAt": "2019-11-21T05:43:05.913Z",
  "devdoc": {
    "methods": {
      "getAgreementHash()": {
        "details": "getAgreementHash",
        "return": "bytes32 agreementHash"
      },
      "initialize(address,address,address,bytes32)": {
        "details": "initialize",
        "params": {
          "_agreementHash": "is a hash of agreement required to be added to the TX by participants",
          "_avatar": "the avatar to mint reputation from",
          "_tokenContract": "the token contract"
        }
      },
      "redeem(address,bytes32)": {
        "details": "redeem function",
        "params": {
          "_agreementHash": "the agreementHash hash",
          "_beneficiary": "the beneficiary address to redeem for"
        },
        "return": "uint256 minted reputation"
      },
      "redeemWithSignature(address,bytes32,uint256,bytes)": {
        "details": "redeemWithSignature function",
        "params": {
          "_beneficiary": "the beneficiary address to redeem for",
          "_signature": "- signed data by the staker",
          "_signatureType": "signature type 1 - for web3.eth.sign 2 - for eth_signTypedData according to EIP #712."
        },
        "return": "uint256 minted reputation"
      }
    },
    "title": "A scheme for reputation allocation according to token balances       This contract is assuming that the token contract is paused, and one cannot transfer its tokens."
  },
  "userdoc": {
    "methods": {}
  }
}